{
  "_format": "hh-sol-artifact-1",
  "contractName": "DoctorRegistry",
  "sourceName": "contracts/DoctorRegistry.sol",
  "abi": [
    {
      "inputs": [],
      "stateMutability": "nonpayable",
      "type": "constructor"
    },
    {
      "anonymous": false,
      "inputs": [
        {
          "indexed": true,
          "internalType": "address",
          "name": "doctor",
          "type": "address"
        }
      ],
      "name": "DoctorProfileUpdated",
      "type": "event"
    },
    {
      "anonymous": false,
      "inputs": [
        {
          "indexed": true,
          "internalType": "address",
          "name": "doctor",
          "type": "address"
        },
        {
          "indexed": false,
          "internalType": "string",
          "name": "name",
          "type": "string"
        },
        {
          "indexed": false,
          "internalType": "string",
          "name": "specialty",
          "type": "string"
        }
      ],
      "name": "DoctorRegistered",
      "type": "event"
    },
    {
      "anonymous": false,
      "inputs": [
        {
          "indexed": true,
          "internalType": "address",
          "name": "doctor",
          "type": "address"
        }
      ],
      "name": "DoctorVerified",
      "type": "event"
    },
    {
      "anonymous": false,
      "inputs": [
        {
          "indexed": true,
          "internalType": "address",
          "name": "doctor",
          "type": "address"
        },
        {
          "indexed": false,
          "internalType": "uint256",
          "name": "newCount",
          "type": "uint256"
        }
      ],
      "name": "PatientCountUpdated",
      "type": "event"
    },
    {
      "inputs": [],
      "name": "admin",
      "outputs": [
        {
          "internalType": "address",
          "name": "",
          "type": "address"
        }
      ],
      "stateMutability": "view",
      "type": "function"
    },
    {
      "inputs": [
        {
          "internalType": "uint256",
          "name": "",
          "type": "uint256"
        }
      ],
      "name": "doctorAddresses",
      "outputs": [
        {
          "internalType": "address",
          "name": "",
          "type": "address"
        }
      ],
      "stateMutability": "view",
      "type": "function"
    },
    {
      "inputs": [
        {
          "internalType": "address",
          "name": "",
          "type": "address"
        }
      ],
      "name": "doctors",
      "outputs": [
        {
          "internalType": "string",
          "name": "name",
          "type": "string"
        },
        {
          "internalType": "string",
          "name": "specialty",
          "type": "string"
        },
        {
          "internalType": "string",
          "name": "hospital",
          "type": "string"
        },
        {
          "internalType": "string",
          "name": "did",
          "type": "string"
        },
        {
          "internalType": "string",
          "name": "qualifications",
          "type": "string"
        },
        {
          "internalType": "bool",
          "name": "isVerified",
          "type": "bool"
        },
        {
          "internalType": "uint256",
          "name": "registeredAt",
          "type": "uint256"
        },
        {
          "internalType": "uint256",
          "name": "totalPatients",
          "type": "uint256"
        },
        {
          "internalType": "bool",
          "name": "exists",
          "type": "bool"
        }
      ],
      "stateMutability": "view",
      "type": "function"
    },
    {
      "inputs": [],
      "name": "getAllDoctors",
      "outputs": [
        {
          "internalType": "address[]",
          "name": "",
          "type": "address[]"
        }
      ],
      "stateMutability": "view",
      "type": "function"
    },
    {
      "inputs": [
        {
          "internalType": "address",
          "name": "_doctor",
          "type": "address"
        }
      ],
      "name": "getDoctor",
      "outputs": [
        {
          "components": [
            {
              "internalType": "string",
              "name": "name",
              "type": "string"
            },
            {
              "internalType": "string",
              "name": "specialty",
              "type": "string"
            },
            {
              "internalType": "string",
              "name": "hospital",
              "type": "string"
            },
            {
              "internalType": "string",
              "name": "did",
              "type": "string"
            },
            {
              "internalType": "string",
              "name": "qualifications",
              "type": "string"
            },
            {
              "internalType": "bool",
              "name": "isVerified",
              "type": "bool"
            },
            {
              "internalType": "uint256",
              "name": "registeredAt",
              "type": "uint256"
            },
            {
              "internalType": "uint256",
              "name": "totalPatients",
              "type": "uint256"
            },
            {
              "internalType": "bool",
              "name": "exists",
              "type": "bool"
            }
          ],
          "internalType": "struct DoctorRegistry.DoctorProfile",
          "name": "",
          "type": "tuple"
        }
      ],
      "stateMutability": "view",
      "type": "function"
    },
    {
      "inputs": [],
      "name": "getDoctorCount",
      "outputs": [
        {
          "internalType": "uint256",
          "name": "",
          "type": "uint256"
        }
      ],
      "stateMutability": "view",
      "type": "function"
    },
    {
      "inputs": [
        {
          "internalType": "string",
          "name": "_specialty",
          "type": "string"
        }
      ],
      "name": "getDoctorsBySpecialty",
      "outputs": [
        {
          "internalType": "address[]",
          "name": "",
          "type": "address[]"
        }
      ],
      "stateMutability": "view",
      "type": "function"
    },
    {
      "inputs": [
        {
          "internalType": "address",
          "name": "_doctor",
          "type": "address"
        }
      ],
      "name": "incrementPatientCount",
      "outputs": [],
      "stateMutability": "nonpayable",
      "type": "function"
    },
    {
      "inputs": [
        {
          "internalType": "address",
          "name": "_addr",
          "type": "address"
        }
      ],
      "name": "isDoctor",
      "outputs": [
        {
          "internalType": "bool",
          "name": "",
          "type": "bool"
        }
      ],
      "stateMutability": "view",
      "type": "function"
    },
    {
      "inputs": [
        {
          "internalType": "string",
          "name": "_name",
          "type": "string"
        },
        {
          "internalType": "string",
          "name": "_specialty",
          "type": "string"
        },
        {
          "internalType": "string",
          "name": "_hospital",
          "type": "string"
        },
        {
          "internalType": "string",
          "name": "_did",
          "type": "string"
        },
        {
          "internalType": "string",
          "name": "_qualifications",
          "type": "string"
        }
      ],
      "name": "registerDoctor",
      "outputs": [],
      "stateMutability": "nonpayable",
      "type": "function"
    },
    {
      "inputs": [
        {
          "internalType": "string",
          "name": "_name",
          "type": "string"
        },
        {
          "internalType": "string",
          "name": "_hospital",
          "type": "string"
        },
        {
          "internalType": "string",
          "name": "_qualifications",
          "type": "string"
        }
      ],
      "name": "updateProfile",
      "outputs": [],
      "stateMutability": "nonpayable",
      "type": "function"
    },
    {
      "inputs": [
        {
          "internalType": "address",
          "name": "_doctor",
          "type": "address"
        }
      ],
      "name": "verifyDoctor",
      "outputs": [],
      "stateMutability": "nonpayable",
      "type": "function"
    }
  ],
  "bytecode": "0x608060405234801561001057600080fd5b50600080546001600160a01b031916331790556116da806100326000396000f3fe608060405234801561001057600080fd5b50600436106100b45760003560e01c8063996440c611610071578063996440c614610166578063a9583c22146101a5578063bcea09ac146101cd578063d80cb05c146101e0578063f0d95090146101f3578063f851a440146101fb57600080fd5b80631105a5eb146100b95780632f04e064146100ce5780633ba51e7c146100f75780634d1286861461012257806379111c1c1461013557806380eb139814610146575b600080fd5b6100cc6100c7366004610fa7565b61020e565b005b6100e16100dc366004611041565b6102b9565b6040516100ee91906110b7565b60405180910390f35b61010a610105366004611198565b61067f565b6040516001600160a01b0390911681526020016100ee565b6100cc610130366004611041565b6106a9565b6002546040519081526020016100ee565b6101596101543660046111b1565b610763565b6040516100ee91906111f3565b610195610174366004611041565b6001600160a01b031660009081526001602052604090206008015460ff1690565b60405190151581526020016100ee565b6101b86101b3366004611041565b6107e0565b6040516100ee99989796959493929190611240565b6100cc6101db3660046112d0565b610ad5565b6100cc6101ee366004611041565b610e0a565b610159610efc565b60005461010a906001600160a01b031681565b3360009081526001602052604090206008015460ff166102495760405162461bcd60e51b8152600401610240906113c1565b60405180910390fd5b33600090815260016020526040902080610264878983611491565b5060028101610274858783611491565b5060048101610284838583611491565b5060405133907ff73da297867c7106fa124ea41a6048af13b01fd08d8ec66da7001ddedfab396190600090a250505050505050565b61030c604051806101200160405280606081526020016060815260200160608152602001606081526020016060815260200160001515815260200160008152602001600081526020016000151581525090565b6001600160a01b03821660009081526001602052604090206008015460ff166103475760405162461bcd60e51b8152600401610240906113c1565b6001600160a01b038216600090815260016020526040908190208151610120810190925280548290829061037a90611406565b80601f01602080910402602001604051908101604052809291908181526020018280546103a690611406565b80156103f35780601f106103c8576101008083540402835291602001916103f3565b820191906000526020600020905b8154815290600101906020018083116103d657829003601f168201915b5050505050815260200160018201805461040c90611406565b80601f016020809104026020016040519081016040528092919081815260200182805461043890611406565b80156104855780601f1061045a57610100808354040283529160200191610485565b820191906000526020600020905b81548152906001019060200180831161046857829003601f168201915b5050505050815260200160028201805461049e90611406565b80601f01602080910402602001604051908101604052809291908181526020018280546104ca90611406565b80156105175780601f106104ec57610100808354040283529160200191610517565b820191906000526020600020905b8154815290600101906020018083116104fa57829003601f168201915b5050505050815260200160038201805461053090611406565b80601f016020809104026020016040519081016040528092919081815260200182805461055c90611406565b80156105a95780601f1061057e576101008083540402835291602001916105a9565b820191906000526020600020905b81548152906001019060200180831161058c57829003601f168201915b505050505081526020016004820180546105c290611406565b80601f01602080910402602001604051908101604052809291908181526020018280546105ee90611406565b801561063b5780601f106106105761010080835404028352916020019161063b565b820191906000526020600020905b81548152906001019060200180831161061e57829003601f168201915b5050509183525050600582015460ff908116151560208301526006830154604083015260078301546060830152600890920154909116151560809091015292915050565b6002818154811061068f57600080fd5b6000918252602090912001546001600160a01b0316905081565b6001600160a01b03811660009081526001602052604090206008015460ff166106e45760405162461bcd60e51b8152600401610240906113c1565b6001600160a01b038116600090815260016020526040812060070180549161070b83611552565b90915550506001600160a01b0381166000818152600160209081526040918290206007015491519182527f9a087d071d6451e3f8227e520595bafa366975918b36f0616558539b183986ac910160405180910390a250565b606060038383604051610777929190611579565b90815260408051918290036020908101832080548083028501830190935282845291908301828280156107d357602002820191906000526020600020905b81546001600160a01b031681526001909101906020018083116107b5575b5050505050905092915050565b6001602052600090815260409020805481906107fb90611406565b80601f016020809104026020016040519081016040528092919081815260200182805461082790611406565b80156108745780601f1061084957610100808354040283529160200191610874565b820191906000526020600020905b81548152906001019060200180831161085757829003601f168201915b50505050509080600101805461088990611406565b80601f01602080910402602001604051908101604052809291908181526020018280546108b590611406565b80156109025780601f106108d757610100808354040283529160200191610902565b820191906000526020600020905b8154815290600101906020018083116108e557829003601f168201915b50505050509080600201805461091790611406565b80601f016020809104026020016040519081016040528092919081815260200182805461094390611406565b80156109905780601f1061096557610100808354040283529160200191610990565b820191906000526020600020905b81548152906001019060200180831161097357829003601f168201915b5050505050908060030180546109a590611406565b80601f01602080910402602001604051908101604052809291908181526020018280546109d190611406565b8015610a1e5780601f106109f357610100808354040283529160200191610a1e565b820191906000526020600020905b815481529060010190602001808311610a0157829003601f168201915b505050505090806004018054610a3390611406565b80601f0160208091040260200160405190810160405280929190818152602001828054610a5f90611406565b8015610aac5780601f10610a8157610100808354040283529160200191610aac565b820191906000526020600020905b815481529060010190602001808311610a8f57829003601f168201915b505050600584015460068501546007860154600890960154949560ff9283169591945092501689565b3360009081526001602052604090206008015460ff1615610b385760405162461bcd60e51b815260206004820152601960248201527f446f63746f7220616c72656164792072656769737465726564000000000000006044820152606401610240565b6040518061012001604052808b8b8080601f016020809104026020016040519081016040528093929190818152602001838380828437600092019190915250505090825250604080516020601f8c018190048102820181019092528a815291810191908b908b9081908401838280828437600092019190915250505090825250604080516020601f8a0181900481028201810190925288815291810191908990899081908401838280828437600092019190915250505090825250604080516020601f880181900481028201810190925286815291810191908790879081908401838280828437600092019190915250505090825250604080516020601f860181900481028201810190925284815291810191908590859081908401838280828437600092018290525093855250505060208083018290524260408085019190915260608401839052600160809094018490523383529290522081518190610ca09082611589565b5060208201516001820190610cb59082611589565b5060408201516002820190610cca9082611589565b5060608201516003820190610cdf9082611589565b5060808201516004820190610cf49082611589565b5060a082015160058201805491151560ff1992831617905560c0830151600683015560e08301516007830155610100909201516008909101805491151591909216179055600280546001810182556000919091527f405787fa12a823e0f2b7631cc41b3ba8828b3321ca811111fa75cd3aa3bb5ace0180546001600160a01b03191633179055604051600390610d8d908a908a90611579565b9081526040519081900360209081018220805460018101825560009182529190200180546001600160a01b03191633908117909155907fbc3a5b2aeb1bc52e3d56d3fd3423dd66cea5ecff8ae1f3bd0d75a0e608da7b8590610df6908d908d908d908d90611672565b60405180910390a250505050505050505050565b6000546001600160a01b03163314610e6f5760405162461bcd60e51b815260206004820152602260248201527f4f6e6c792061646d696e2063616e20706572666f726d2074686973206163746960448201526137b760f11b6064820152608401610240565b6001600160a01b03811660009081526001602052604090206008015460ff16610eaa5760405162461bcd60e51b8152600401610240906113c1565b6001600160a01b0381166000818152600160208190526040808320600501805460ff1916909217909155517fb0859f2cf042b300c8948cdd785ec6a23a3742bc5446c19f4b270b67fac2c9679190a250565b60606002805480602002602001604051908101604052809291908181526020018280548015610f5457602002820191906000526020600020905b81546001600160a01b03168152600190910190602001808311610f36575b5050505050905090565b60008083601f840112610f7057600080fd5b50813567ffffffffffffffff811115610f8857600080fd5b602083019150836020828501011115610fa057600080fd5b9250929050565b60008060008060008060608789031215610fc057600080fd5b863567ffffffffffffffff80821115610fd857600080fd5b610fe48a838b01610f5e565b90985096506020890135915080821115610ffd57600080fd5b6110098a838b01610f5e565b9096509450604089013591508082111561102257600080fd5b5061102f89828a01610f5e565b979a9699509497509295939492505050565b60006020828403121561105357600080fd5b81356001600160a01b038116811461106a57600080fd5b9392505050565b6000815180845260005b818110156110975760208185018101518683018201520161107b565b506000602082860101526020601f19601f83011685010191505092915050565b60208152600082516101208060208501526110d6610140850183611071565b91506020850151601f19808685030160408701526110f48483611071565b935060408701519150808685030160608701526111118483611071565b9350606087015191508086850301608087015261112e8483611071565b935060808701519150808685030160a08701525061114c8382611071565b92505060a085015161116260c086018215159052565b5060c085015160e085015260e085015161010081818701528087015191505061118e8286018215159052565b5090949350505050565b6000602082840312156111aa57600080fd5b5035919050565b600080602083850312156111c457600080fd5b823567ffffffffffffffff8111156111db57600080fd5b6111e785828601610f5e565b90969095509350505050565b6020808252825182820181905260009190848201906040850190845b818110156112345783516001600160a01b03168352928401929184019160010161120f565b50909695505050505050565b60006101208083526112548184018d611071565b90508281036020840152611268818c611071565b9050828103604084015261127c818b611071565b90508281036060840152611290818a611071565b905082810360808401526112a48189611071565b96151560a0840152505060c081019390935260e083019190915215156101009091015295945050505050565b60008060008060008060008060008060a08b8d0312156112ef57600080fd5b8a3567ffffffffffffffff8082111561130757600080fd5b6113138e838f01610f5e565b909c509a5060208d013591508082111561132c57600080fd5b6113388e838f01610f5e565b909a50985060408d013591508082111561135157600080fd5b61135d8e838f01610f5e565b909850965060608d013591508082111561137657600080fd5b6113828e838f01610f5e565b909650945060808d013591508082111561139b57600080fd5b506113a88d828e01610f5e565b915080935050809150509295989b9194979a5092959850565b602080825260159082015274111bd8dd1bdc881b9bdd081c9959da5cdd195c9959605a1b604082015260600190565b634e487b7160e01b600052604160045260246000fd5b600181811c9082168061141a57607f821691505b60208210810361143a57634e487b7160e01b600052602260045260246000fd5b50919050565b601f82111561148c576000816000526020600020601f850160051c810160208610156114695750805b601f850160051c820191505b8181101561148857828155600101611475565b5050505b505050565b67ffffffffffffffff8311156114a9576114a96113f0565b6114bd836114b78354611406565b83611440565b6000601f8411600181146114f157600085156114d95750838201355b600019600387901b1c1916600186901b17835561154b565b600083815260209020601f19861690835b828110156115225786850135825560209485019460019092019101611502565b508682101561153f5760001960f88860031b161c19848701351681555b505060018560011b0183555b5050505050565b60006001820161157257634e487b7160e01b600052601160045260246000fd5b5060010190565b8183823760009101908152919050565b815167ffffffffffffffff8111156115a3576115a36113f0565b6115b7816115b18454611406565b84611440565b602080601f8311600181146115ec57600084156115d45750858301515b600019600386901b1c1916600185901b178555611488565b600085815260208120601f198616915b8281101561161b578886015182559484019460019091019084016115fc565b50858210156116395787850151600019600388901b60f8161c191681555b5050505050600190811b01905550565b81835281816020850137506000828201602090810191909152601f909101601f19169091010190565b604081526000611686604083018688611649565b8281036020840152611699818587611649565b97965050505050505056fea26469706673582212202813bb538e5f659d315ce09b0dc640f2b4abc1ddcf0fab859331d79f64c065b464736f6c63430008180033",
  "linkReferences": {},
  "deployedLinkReferences": {}
}