{
  "_format": "hh-sol-artifact-1",
  "contractName": "MedicalRecords",
  "sourceName": "contracts/MedicalRecords.sol",
  "abi": [
    {
      "anonymous": false,
      "inputs": [
        {
          "indexed": true,
          "internalType": "address",
          "name": "patient",
          "type": "address"
        },
        {
          "indexed": true,
          "internalType": "address",
          "name": "doctor",
          "type": "address"
        }
      ],
      "name": "AccessGranted",
      "type": "event"
    },
    {
      "anonymous": false,
      "inputs": [
        {
          "indexed": true,
          "internalType": "address",
          "name": "patient",
          "type": "address"
        },
        {
          "indexed": true,
          "internalType": "address",
          "name": "doctor",
          "type": "address"
        }
      ],
      "name": "AccessRevoked",
      "type": "event"
    },
    {
      "anonymous": false,
      "inputs": [
        {
          "indexed": true,
          "internalType": "address",
          "name": "patient",
          "type": "address"
        },
        {
          "indexed": false,
          "internalType": "string",
          "name": "ipfsCid",
          "type": "string"
        },
        {
          "indexed": false,
          "internalType": "enum MedicalRecords.Category",
          "name": "category",
          "type": "uint8"
        },
        {
          "indexed": false,
          "internalType": "address",
          "name": "addedBy",
          "type": "address"
        }
      ],
      "name": "RecordAdded",
      "type": "event"
    },
    {
      "inputs": [
        {
          "internalType": "string",
          "name": "_ipfsCid",
          "type": "string"
        },
        {
          "internalType": "enum MedicalRecords.Category",
          "name": "_category",
          "type": "uint8"
        },
        {
          "internalType": "string",
          "name": "_description",
          "type": "string"
        }
      ],
      "name": "addRecord",
      "outputs": [],
      "stateMutability": "nonpayable",
      "type": "function"
    },
    {
      "inputs": [
        {
          "internalType": "address",
          "name": "_patient",
          "type": "address"
        },
        {
          "internalType": "string",
          "name": "_ipfsCid",
          "type": "string"
        },
        {
          "internalType": "enum MedicalRecords.Category",
          "name": "_category",
          "type": "uint8"
        },
        {
          "internalType": "string",
          "name": "_description",
          "type": "string"
        }
      ],
      "name": "addRecordForPatient",
      "outputs": [],
      "stateMutability": "nonpayable",
      "type": "function"
    },
    {
      "inputs": [
        {
          "internalType": "address",
          "name": "_patient",
          "type": "address"
        },
        {
          "internalType": "address",
          "name": "_doctor",
          "type": "address"
        }
      ],
      "name": "checkAccess",
      "outputs": [
        {
          "internalType": "bool",
          "name": "",
          "type": "bool"
        }
      ],
      "stateMutability": "view",
      "type": "function"
    },
    {
      "inputs": [
        {
          "internalType": "address",
          "name": "_patient",
          "type": "address"
        }
      ],
      "name": "getAccessList",
      "outputs": [
        {
          "internalType": "address[]",
          "name": "",
          "type": "address[]"
        }
      ],
      "stateMutability": "view",
      "type": "function"
    },
    {
      "inputs": [
        {
          "internalType": "address",
          "name": "_patient",
          "type": "address"
        }
      ],
      "name": "getRecordCount",
      "outputs": [
        {
          "internalType": "uint256",
          "name": "",
          "type": "uint256"
        }
      ],
      "stateMutability": "view",
      "type": "function"
    },
    {
      "inputs": [
        {
          "internalType": "address",
          "name": "_patient",
          "type": "address"
        }
      ],
      "name": "getRecords",
      "outputs": [
        {
          "components": [
            {
              "internalType": "string",
              "name": "ipfsCid",
              "type": "string"
            },
            {
              "internalType": "enum MedicalRecords.Category",
              "name": "category",
              "type": "uint8"
            },
            {
              "internalType": "address",
              "name": "addedBy",
              "type": "address"
            },
            {
              "internalType": "uint256",
              "name": "timestamp",
              "type": "uint256"
            },
            {
              "internalType": "string",
              "name": "description",
              "type": "string"
            }
          ],
          "internalType": "struct MedicalRecords.Record[]",
          "name": "",
          "type": "tuple[]"
        }
      ],
      "stateMutability": "view",
      "type": "function"
    },
    {
      "inputs": [
        {
          "internalType": "address",
          "name": "_patient",
          "type": "address"
        },
        {
          "internalType": "enum MedicalRecords.Category",
          "name": "_category",
          "type": "uint8"
        }
      ],
      "name": "getRecordsByCategory",
      "outputs": [
        {
          "components": [
            {
              "internalType": "string",
              "name": "ipfsCid",
              "type": "string"
            },
            {
              "internalType": "enum MedicalRecords.Category",
              "name": "category",
              "type": "uint8"
            },
            {
              "internalType": "address",
              "name": "addedBy",
              "type": "address"
            },
            {
              "internalType": "uint256",
              "name": "timestamp",
              "type": "uint256"
            },
            {
              "internalType": "string",
              "name": "description",
              "type": "string"
            }
          ],
          "internalType": "struct MedicalRecords.Record[]",
          "name": "",
          "type": "tuple[]"
        }
      ],
      "stateMutability": "view",
      "type": "function"
    },
    {
      "inputs": [
        {
          "internalType": "address",
          "name": "_doctor",
          "type": "address"
        }
      ],
      "name": "grantAccess",
      "outputs": [],
      "stateMutability": "nonpayable",
      "type": "function"
    },
    {
      "inputs": [
        {
          "internalType": "address",
          "name": "_patient",
          "type": "address"
        },
        {
          "internalType": "address",
          "name": "_doctor",
          "type": "address"
        }
      ],
      "name": "grantAccessByReferral",
      "outputs": [],
      "stateMutability": "nonpayable",
      "type": "function"
    },
    {
      "inputs": [
        {
          "internalType": "address",
          "name": "",
          "type": "address"
        },
        {
          "internalType": "address",
          "name": "",
          "type": "address"
        }
      ],
      "name": "hasInteraction",
      "outputs": [
        {
          "internalType": "bool",
          "name": "",
          "type": "bool"
        }
      ],
      "stateMutability": "view",
      "type": "function"
    },
    {
      "inputs": [
        {
          "internalType": "address",
          "name": "_doctor",
          "type": "address"
        }
      ],
      "name": "revokeAccess",
      "outputs": [],
      "stateMutability": "nonpayable",
      "type": "function"
    }
  ],
  "bytecode": "0x608060405234801561001057600080fd5b5061164c806100206000396000f3fe608060405234801561001057600080fd5b50600436106100a95760003560e01c806380efcb3c1161007157806380efcb3c1461014857806385e68531146101685780638f8c13201461017b578063a0076e84146101a9578063a944943b146101c9578063e9c6db16146101dc57600080fd5b80630ae5e739146100ae5780630dd891bd146100c35780631b6377b8146100d657806358214308146100e957806362e1f74514610125575b600080fd5b6100c16100bc366004611050565b6101ef565b005b6100c16100d13660046110ca565b6102e4565b6100c16100e436600461115e565b610510565b6101126100f7366004611050565b6001600160a01b031660009081526020819052604090205490565b6040519081526020015b60405180910390f35b6101386101333660046111e2565b6106b5565b604051901515815260200161011c565b61015b610156366004611050565b6106e5565b60405161011c9190611215565b6100c1610176366004611050565b6107bd565b6101386101893660046111e2565b600360209081526000928352604080842090915290825290205460ff1681565b6101bc6101b7366004611050565b610994565b60405161011c91906112e0565b6100c16101d73660046111e2565b610bd9565b6101bc6101ea36600461139a565b610c8b565b3360009081526001602090815260408083206001600160a01b038516845290915290205460ff16156102615760405162461bcd60e51b81526020600482015260166024820152751058d8d95cdcc8185b1c9958591e4819dc985b9d195960521b60448201526064015b60405180910390fd5b3360008181526001602081815260408084206001600160a01b038716808652908352818520805460ff1916851790558585526002835281852080549485018155855291842090920180546001600160a01b0319168217905590519092917f9f520b3bfc56d06f7065d10b4683b3f57ac8895d5026cd176dee95ce1454cb8d91a350565b85336001600160a01b038216148061031f57506001600160a01b038116600090815260016020908152604080832033845290915290205460ff165b61033b5760405162461bcd60e51b8152600401610258906113c4565b6001600160a01b03871660009081526020818152604091829020825160c0601f8a018490049093028101830190935260a083018881529092918291908a908a90819085018382808284376000920191909152505050908252506020018660048111156103a9576103a96112a8565b8152602001336001600160a01b0316815260200142815260200185858080601f01602080910402602001604051908101604052809392919081815260200183838082843760009201829052509390945250508354600181018555938152602090208251929360040201918291506104209082611496565b50602082015160018083018054909160ff1990911690836004811115610448576104486112a8565b021790555060408201516001820180546001600160a01b0390921661010002610100600160a81b031990921691909117905560608201516002820155608082015160038201906104989082611496565b5050506001600160a01b038716600081815260036020908152604080832033808552925291829020805460ff1916600117905590517fa2e8c87532523f88e7cb453530147288df8ddf11ddf620ff2f981e999c470500916104ff918a918a918a9190611556565b60405180910390a250505050505050565b3360009081526020818152604091829020825160c0601f89018490049093028101830190935260a083018781529092918291908990899081908501838280828437600092019190915250505090825250602001856004811115610575576105756112a8565b8152602001336001600160a01b0316815260200142815260200184848080601f01602080910402602001604051908101604052809392919081815260200183838082843760009201829052509390945250508354600181018555938152602090208251929360040201918291506105ec9082611496565b50602082015160018083018054909160ff1990911690836004811115610614576106146112a8565b021790555060408201516001820180546001600160a01b0390921661010002610100600160a81b031990921691909117905560608201516002820155608082015160038201906106649082611496565b505050336001600160a01b03167fa2e8c87532523f88e7cb453530147288df8ddf11ddf620ff2f981e999c470500868686336040516106a69493929190611556565b60405180910390a25050505050565b6001600160a01b0380831660009081526001602090815260408083209385168352929052205460ff165b92915050565b6060336001600160a01b038316146107495760405162461bcd60e51b815260206004820152602160248201527f4f6e6c792070617469656e742063616e207669657720616363657373206c69736044820152601d60fa1b6064820152608401610258565b6001600160a01b038216600090815260026020908152604091829020805483518184028101840190945280845290918301828280156107b157602002820191906000526020600020905b81546001600160a01b03168152600190910190602001808311610793575b50505050509050919050565b3360009081526001602090815260408083206001600160a01b038516845290915290205460ff166108265760405162461bcd60e51b81526020600482015260136024820152724e6f2061636365737320746f207265766f6b6560681b6044820152606401610258565b3360008181526001602090815260408083206001600160a01b03861684528252808320805460ff1916905592825260029052908120905b815481101561095957826001600160a01b0316828281548110610882576108826115a8565b6000918252602090912001546001600160a01b03160361095157815482906108ac906001906115d4565b815481106108bc576108bc6115a8565b9060005260206000200160009054906101000a90046001600160a01b03168282815481106108ec576108ec6115a8565b9060005260206000200160006101000a8154816001600160a01b0302191690836001600160a01b031602179055508180548061092a5761092a6115e7565b600082815260209020810160001990810180546001600160a01b0319169055019055610959565b60010161085d565b506040516001600160a01b0383169033907f825c8be24eb0df19500f63e86c29e7d0d951e73056b889b891d85e40938d9b6e90600090a35050565b606081336001600160a01b03821614806109d157506001600160a01b038116600090815260016020908152604080832033845290915290205460ff165b6109ed5760405162461bcd60e51b8152600401610258906113c4565b6001600160a01b03831660009081526020818152604080832080548251818502810185019093528083529193909284015b82821015610bcc57838290600052602060002090600402016040518060a0016040529081600082018054610a5190611411565b80601f0160208091040260200160405190810160405280929190818152602001828054610a7d90611411565b8015610aca5780601f10610a9f57610100808354040283529160200191610aca565b820191906000526020600020905b815481529060010190602001808311610aad57829003601f168201915b5050509183525050600182015460209091019060ff166004811115610af157610af16112a8565b6004811115610b0257610b026112a8565b8152600182015461010090046001600160a01b0316602082015260028201546040820152600382018054606090920191610b3b90611411565b80601f0160208091040260200160405190810160405280929190818152602001828054610b6790611411565b8015610bb45780601f10610b8957610100808354040283529160200191610bb4565b820191906000526020600020905b815481529060010190602001808311610b9757829003601f168201915b50505050508152505081526020019060010190610a1e565b5050505091505b50919050565b6001600160a01b0380831660009081526001602090815260408083209385168352929052205460ff16610c87576001600160a01b038083166000818152600160208181526040808420958716808552958252808420805460ff1916841790558484526002825280842080549384018155845290832090910180546001600160a01b03191685179055517f9f520b3bfc56d06f7065d10b4683b3f57ac8895d5026cd176dee95ce1454cb8d9190a35b5050565b606082336001600160a01b0382161480610cc857506001600160a01b038116600090815260016020908152604080832033845290915290205460ff165b610ce45760405162461bcd60e51b8152600401610258906113c4565b6001600160a01b038416600090815260208190526040812090805b8254811015610d6e57856004811115610d1a57610d1a6112a8565b838281548110610d2c57610d2c6115a8565b600091825260209091206004918202016001015460ff1690811115610d5357610d536112a8565b03610d665781610d62816115fd565b9250505b600101610cff565b5060008167ffffffffffffffff811115610d8a57610d8a6113fb565b604051908082528060200260200182016040528015610dec57816020015b610dd96040805160a08101909152606081526020810160008152600060208201819052604082015260609081015290565b815260200190600190039081610da85790505b5090506000805b845481101561102757876004811115610e0e57610e0e6112a8565b858281548110610e2057610e206115a8565b600091825260209091206004918202016001015460ff1690811115610e4757610e476112a8565b0361101f57848181548110610e5e57610e5e6115a8565b90600052602060002090600402016040518060a0016040529081600082018054610e8790611411565b80601f0160208091040260200160405190810160405280929190818152602001828054610eb390611411565b8015610f005780601f10610ed557610100808354040283529160200191610f00565b820191906000526020600020905b815481529060010190602001808311610ee357829003601f168201915b5050509183525050600182015460209091019060ff166004811115610f2757610f276112a8565b6004811115610f3857610f386112a8565b8152600182015461010090046001600160a01b0316602082015260028201546040820152600382018054606090920191610f7190611411565b80601f0160208091040260200160405190810160405280929190818152602001828054610f9d90611411565b8015610fea5780601f10610fbf57610100808354040283529160200191610fea565b820191906000526020600020905b815481529060010190602001808311610fcd57829003601f168201915b505050505081525050838381518110611005576110056115a8565b6020026020010181905250818061101b906115fd565b9250505b600101610df3565b5090979650505050505050565b80356001600160a01b038116811461104b57600080fd5b919050565b60006020828403121561106257600080fd5b61106b82611034565b9392505050565b60008083601f84011261108457600080fd5b50813567ffffffffffffffff81111561109c57600080fd5b6020830191508360208285010111156110b457600080fd5b9250929050565b80356005811061104b57600080fd5b600080600080600080608087890312156110e357600080fd5b6110ec87611034565b9550602087013567ffffffffffffffff8082111561110957600080fd5b6111158a838b01611072565b909750955085915061112960408a016110bb565b9450606089013591508082111561113f57600080fd5b5061114c89828a01611072565b979a9699509497509295939492505050565b60008060008060006060868803121561117657600080fd5b853567ffffffffffffffff8082111561118e57600080fd5b61119a89838a01611072565b90975095508591506111ae602089016110bb565b945060408801359150808211156111c457600080fd5b506111d188828901611072565b969995985093965092949392505050565b600080604083850312156111f557600080fd5b6111fe83611034565b915061120c60208401611034565b90509250929050565b6020808252825182820181905260009190848201906040850190845b818110156112565783516001600160a01b031683529284019291840191600101611231565b50909695505050505050565b6000815180845260005b818110156112885760208185018101518683018201520161126c565b506000602082860101526020601f19601f83011685010191505092915050565b634e487b7160e01b600052602160045260246000fd5b600581106112dc57634e487b7160e01b600052602160045260246000fd5b9052565b600060208083018184528085518083526040925060408601915060408160051b87010184880160005b8381101561138c57603f19898403018552815160a0815181865261132f82870182611262565b915050888201516113428a8701826112be565b50818801516001600160a01b03168589015260608083015190860152608091820151858203928601929092526113788183611262565b968901969450505090860190600101611309565b509098975050505050505050565b600080604083850312156113ad57600080fd5b6113b683611034565b915061120c602084016110bb565b6020808252601c908201527f4e6f2061636365737320746f2070617469656e74207265636f72647300000000604082015260600190565b634e487b7160e01b600052604160045260246000fd5b600181811c9082168061142557607f821691505b602082108103610bd357634e487b7160e01b600052602260045260246000fd5b601f821115611491576000816000526020600020601f850160051c8101602086101561146e5750805b601f850160051c820191505b8181101561148d5782815560010161147a565b5050505b505050565b815167ffffffffffffffff8111156114b0576114b06113fb565b6114c4816114be8454611411565b84611445565b602080601f8311600181146114f957600084156114e15750858301515b600019600386901b1c1916600185901b17855561148d565b600085815260208120601f198616915b8281101561152857888601518255948401946001909101908401611509565b50858210156115465787850151600019600388901b60f8161c191681555b5050505050600190811b01905550565b606081528360608201528385608083013760006080858301015260006080601f19601f870116830101905061158e60208301856112be565b6001600160a01b0392909216604091909101529392505050565b634e487b7160e01b600052603260045260246000fd5b634e487b7160e01b600052601160045260246000fd5b818103818111156106df576106df6115be565b634e487b7160e01b600052603160045260246000fd5b60006001820161160f5761160f6115be565b506001019056fea26469706673582212206a6c0a1ac4221ef3c4b54c32e3dbe64fdeb10b87467a9a4a0a91fe1e5b3d578864736f6c63430008180033",
  "linkReferences": {},
  "deployedLinkReferences": {}
}