{
  "_format": "hh-sol-artifact-1",
  "contractName": "ReferralSystem",
  "sourceName": "contracts/ReferralSystem.sol",
  "abi": [
    {
      "inputs": [
        {
          "internalType": "address",
          "name": "_medicalRecords",
          "type": "address"
        }
      ],
      "stateMutability": "nonpayable",
      "type": "constructor"
    },
    {
      "anonymous": false,
      "inputs": [
        {
          "indexed": true,
          "internalType": "uint256",
          "name": "id",
          "type": "uint256"
        },
        {
          "indexed": true,
          "internalType": "address",
          "name": "doctor",
          "type": "address"
        }
      ],
      "name": "ReferralAccepted",
      "type": "event"
    },
    {
      "anonymous": false,
      "inputs": [
        {
          "indexed": true,
          "internalType": "uint256",
          "name": "id",
          "type": "uint256"
        }
      ],
      "name": "ReferralCompleted",
      "type": "event"
    },
    {
      "anonymous": false,
      "inputs": [
        {
          "indexed": true,
          "internalType": "uint256",
          "name": "id",
          "type": "uint256"
        },
        {
          "indexed": true,
          "internalType": "address",
          "name": "from",
          "type": "address"
        },
        {
          "indexed": true,
          "internalType": "address",
          "name": "to",
          "type": "address"
        },
        {
          "indexed": false,
          "internalType": "address",
          "name": "patient",
          "type": "address"
        }
      ],
      "name": "ReferralCreated",
      "type": "event"
    },
    {
      "anonymous": false,
      "inputs": [
        {
          "indexed": true,
          "internalType": "uint256",
          "name": "id",
          "type": "uint256"
        },
        {
          "indexed": true,
          "internalType": "address",
          "name": "doctor",
          "type": "address"
        }
      ],
      "name": "ReferralDeclined",
      "type": "event"
    },
    {
      "inputs": [
        {
          "internalType": "uint256",
          "name": "_id",
          "type": "uint256"
        }
      ],
      "name": "acceptReferral",
      "outputs": [],
      "stateMutability": "nonpayable",
      "type": "function"
    },
    {
      "inputs": [
        {
          "internalType": "uint256",
          "name": "_id",
          "type": "uint256"
        }
      ],
      "name": "completeReferral",
      "outputs": [],
      "stateMutability": "nonpayable",
      "type": "function"
    },
    {
      "inputs": [
        {
          "internalType": "address",
          "name": "_toDoctor",
          "type": "address"
        },
        {
          "internalType": "address",
          "name": "_patient",
          "type": "address"
        },
        {
          "internalType": "string",
          "name": "_reason",
          "type": "string"
        },
        {
          "internalType": "string",
          "name": "_notes",
          "type": "string"
        }
      ],
      "name": "createReferral",
      "outputs": [],
      "stateMutability": "nonpayable",
      "type": "function"
    },
    {
      "inputs": [
        {
          "internalType": "uint256",
          "name": "_id",
          "type": "uint256"
        }
      ],
      "name": "declineReferral",
      "outputs": [],
      "stateMutability": "nonpayable",
      "type": "function"
    },
    {
      "inputs": [
        {
          "internalType": "address",
          "name": "_doctor",
          "type": "address"
        }
      ],
      "name": "getIncomingReferrals",
      "outputs": [
        {
          "internalType": "uint256[]",
          "name": "",
          "type": "uint256[]"
        }
      ],
      "stateMutability": "view",
      "type": "function"
    },
    {
      "inputs": [
        {
          "internalType": "address",
          "name": "_doctor",
          "type": "address"
        }
      ],
      "name": "getOutgoingReferrals",
      "outputs": [
        {
          "internalType": "uint256[]",
          "name": "",
          "type": "uint256[]"
        }
      ],
      "stateMutability": "view",
      "type": "function"
    },
    {
      "inputs": [
        {
          "internalType": "address",
          "name": "_patient",
          "type": "address"
        }
      ],
      "name": "getPatientReferrals",
      "outputs": [
        {
          "internalType": "uint256[]",
          "name": "",
          "type": "uint256[]"
        }
      ],
      "stateMutability": "view",
      "type": "function"
    },
    {
      "inputs": [
        {
          "internalType": "uint256",
          "name": "_id",
          "type": "uint256"
        }
      ],
      "name": "getReferral",
      "outputs": [
        {
          "components": [
            {
              "internalType": "uint256",
              "name": "id",
              "type": "uint256"
            },
            {
              "internalType": "address",
              "name": "fromDoctor",
              "type": "address"
            },
            {
              "internalType": "address",
              "name": "toDoctor",
              "type": "address"
            },
            {
              "internalType": "address",
              "name": "patient",
              "type": "address"
            },
            {
              "internalType": "string",
              "name": "reason",
              "type": "string"
            },
            {
              "internalType": "string",
              "name": "notes",
              "type": "string"
            },
            {
              "internalType": "enum ReferralSystem.ReferralStatus",
              "name": "status",
              "type": "uint8"
            },
            {
              "internalType": "uint256",
              "name": "createdAt",
              "type": "uint256"
            },
            {
              "internalType": "uint256",
              "name": "updatedAt",
              "type": "uint256"
            }
          ],
          "internalType": "struct ReferralSystem.Referral",
          "name": "",
          "type": "tuple"
        }
      ],
      "stateMutability": "view",
      "type": "function"
    },
    {
      "inputs": [
        {
          "internalType": "address",
          "name": "",
          "type": "address"
        },
        {
          "internalType": "uint256",
          "name": "",
          "type": "uint256"
        }
      ],
      "name": "incomingReferrals",
      "outputs": [
        {
          "internalType": "uint256",
          "name": "",
          "type": "uint256"
        }
      ],
      "stateMutability": "view",
      "type": "function"
    },
    {
      "inputs": [],
      "name": "medicalRecords",
      "outputs": [
        {
          "internalType": "contract MedicalRecords",
          "name": "",
          "type": "address"
        }
      ],
      "stateMutability": "view",
      "type": "function"
    },
    {
      "inputs": [
        {
          "internalType": "address",
          "name": "",
          "type": "address"
        },
        {
          "internalType": "uint256",
          "name": "",
          "type": "uint256"
        }
      ],
      "name": "outgoingReferrals",
      "outputs": [
        {
          "internalType": "uint256",
          "name": "",
          "type": "uint256"
        }
      ],
      "stateMutability": "view",
      "type": "function"
    },
    {
      "inputs": [
        {
          "internalType": "address",
          "name": "",
          "type": "address"
        },
        {
          "internalType": "uint256",
          "name": "",
          "type": "uint256"
        }
      ],
      "name": "patientReferrals",
      "outputs": [
        {
          "internalType": "uint256",
          "name": "",
          "type": "uint256"
        }
      ],
      "stateMutability": "view",
      "type": "function"
    },
    {
      "inputs": [],
      "name": "referralCount",
      "outputs": [
        {
          "internalType": "uint256",
          "name": "",
          "type": "uint256"
        }
      ],
      "stateMutability": "view",
      "type": "function"
    },
    {
      "inputs": [
        {
          "internalType": "uint256",
          "name": "",
          "type": "uint256"
        }
      ],
      "name": "referrals",
      "outputs": [
        {
          "internalType": "uint256",
          "name": "id",
          "type": "uint256"
        },
        {
          "internalType": "address",
          "name": "fromDoctor",
          "type": "address"
        },
        {
          "internalType": "address",
          "name": "toDoctor",
          "type": "address"
        },
        {
          "internalType": "address",
          "name": "patient",
          "type": "address"
        },
        {
          "internalType": "string",
          "name": "reason",
          "type": "string"
        },
        {
          "internalType": "string",
          "name": "notes",
          "type": "string"
        },
        {
          "internalType": "enum ReferralSystem.ReferralStatus",
          "name": "status",
          "type": "uint8"
        },
        {
          "internalType": "uint256",
          "name": "createdAt",
          "type": "uint256"
        },
        {
          "internalType": "uint256",
          "name": "updatedAt",
          "type": "uint256"
        }
      ],
      "stateMutability": "view",
      "type": "function"
    }
  ],
  "bytecode": "0x608060405234801561001057600080fd5b506040516113c53803806113c583398101604081905261002f91610054565b600080546001600160a01b0319166001600160a01b0392909216919091179055610084565b60006020828403121561006657600080fd5b81516001600160a01b038116811461007d57600080fd5b9392505050565b611332806100936000396000f3fe608060405234801561001057600080fd5b50600436106100ea5760003560e01c806389b523601161008c578063b33acaac11610066578063b33acaac146101e7578063bcc36c9214610212578063c3c9863514610225578063e8e5ad631461023857600080fd5b806389b52360146101b85780638db50200146101c15780639b7c018b146101d457600080fd5b806375bcfe12116100c857806375bcfe121461013d57806376dd99e81461015d57806380b7c92b146101705780638330d0d81461019857600080fd5b8063074c04c3146100ef578063078918f114610104578063652bcb581461012a575b600080fd5b6101026100fd366004610e1f565b61024b565b005b610117610112366004610e54565b610375565b6040519081526020015b60405180910390f35b610102610138366004610ec7565b6103a6565b61015061014b366004610f58565b6106a8565b6040516101219190610f7a565b61010261016b366004610e1f565b610714565b61018361017e366004610e1f565b610886565b6040516101219998979695949392919061103c565b6101ab6101a6366004610e1f565b6109f5565b60405161012191906110b3565b61011760015481565b6101026101cf366004610e1f565b610c0a565b6101506101e2366004610f58565b610d13565b6000546101fa906001600160a01b031681565b6040516001600160a01b039091168152602001610121565b610117610220366004610e54565b610d7d565b610150610233366004610f58565b610d99565b610117610246366004610e54565b610e03565b600081815260026020526040902060018101546001600160a01b0316331480610280575060028101546001600160a01b031633145b6102d15760405162461bcd60e51b815260206004820152601d60248201527f4e6f7420696e766f6c76656420696e207468697320726566657272616c00000060448201526064015b60405180910390fd5b6001600682015460ff1660038111156102ec576102ec611004565b146103315760405162461bcd60e51b8152602060048201526015602482015274149959995c9c985b081b9bdd081858d8d95c1d1959605a1b60448201526064016102c8565b60068101805460ff1916600317905542600882015560405182907f51ef32e95d41d714b248651d52654497693ff84c2e8485623729725b33125ae090600090a25050565b6005602052816000526040600020818154811061039157600080fd5b90600052602060002001600091509150505481565b336001600160a01b038716036103fe5760405162461bcd60e51b815260206004820152601860248201527f43616e6e6f7420726566657220746f20796f757273656c66000000000000000060448201526064016102c8565b6001600160a01b0385166104545760405162461bcd60e51b815260206004820152601760248201527f496e76616c69642070617469656e74206164647265737300000000000000000060448201526064016102c8565b600180546000918261046583611174565b919050559050604051806101200160405280828152602001336001600160a01b03168152602001886001600160a01b03168152602001876001600160a01b0316815260200186868080601f016020809104026020016040519081016040528093929190818152602001838380828437600092019190915250505090825250604080516020601f87018190048102820181019092528581529181019190869086908190840183828082843760009201829052509385525050602090920191508152426020808301829052604092830191909152600084815260028083529083902084518155918401516001830180546001600160a01b03199081166001600160a01b03938416179091559385015191830180548516928216929092179091556060840151600383018054909416911617909155608082015160048201906105ab908261123c565b5060a082015160058201906105c0908261123c565b5060c082015160068201805460ff191660018360038111156105e4576105e4611004565b021790555060e0820151600782015561010090910151600890910155336000818152600460209081526040808320805460018082018355918552838520018690556001600160a01b038c8116808652600385528386208054808501825590875285872001889055908c1680865260058552838620805493840181558652948490209091018690559051928352929184917f1e52598c7340f39bdf0ddb82db1a5bcaffe3cf4f7e409e5cdfb19964a8084b91910160405180910390a450505050505050565b6001600160a01b03811660009081526005602090815260409182902080548351818402810184019094528084526060939283018282801561070857602002820191906000526020600020905b8154815260200190600101908083116106f4575b50505050509050919050565b6000818152600260208190526040909120908101546001600160a01b031633146107785760405162461bcd60e51b81526020600482015260156024820152742737ba103a3432903a30b933b2ba103237b1ba37b960591b60448201526064016102c8565b6000600682015460ff16600381111561079357610793611004565b146107d75760405162461bcd60e51b8152602060048201526014602482015273526566657272616c206e6f742070656e64696e6760601b60448201526064016102c8565b60068101805460ff19166001179055426008820155600054600382015460405163a944943b60e01b81526001600160a01b03918216600482015233602482015291169063a944943b90604401600060405180830381600087803b15801561083d57600080fd5b505af1158015610851573d6000803e3d6000fd5b50506040513392508491507f8438e0c16231085fe89a968bf02f2e59ec9dd14a94a140cef254ced67322d2e890600090a35050565b60026020819052600091825260409091208054600182015492820154600383015460048401805493956001600160a01b039081169593811694921692916108cc906111b1565b80601f01602080910402602001604051908101604052809291908181526020018280546108f8906111b1565b80156109455780601f1061091a57610100808354040283529160200191610945565b820191906000526020600020905b81548152906001019060200180831161092857829003601f168201915b50505050509080600501805461095a906111b1565b80601f0160208091040260200160405190810160405280929190818152602001828054610986906111b1565b80156109d35780601f106109a8576101008083540402835291602001916109d3565b820191906000526020600020905b8154815290600101906020018083116109b657829003601f168201915b5050505060068301546007840154600890940154929360ff9091169290915089565b610a43604080516101208101825260008082526020820181905291810182905260608082018390526080820181905260a08201529060c0820190815260200160008152602001600081525090565b6000828152600260208181526040928390208351610120810185528154815260018201546001600160a01b0390811693820193909352928101548216938301939093526003830154166060820152600482018054919291608084019190610aa9906111b1565b80601f0160208091040260200160405190810160405280929190818152602001828054610ad5906111b1565b8015610b225780601f10610af757610100808354040283529160200191610b22565b820191906000526020600020905b815481529060010190602001808311610b0557829003601f168201915b50505050508152602001600582018054610b3b906111b1565b80601f0160208091040260200160405190810160405280929190818152602001828054610b67906111b1565b8015610bb45780601f10610b8957610100808354040283529160200191610bb4565b820191906000526020600020905b815481529060010190602001808311610b9757829003601f168201915b5050509183525050600682015460209091019060ff166003811115610bdb57610bdb611004565b6003811115610bec57610bec611004565b81526007820154602082015260089091015460409091015292915050565b6000818152600260208190526040909120908101546001600160a01b03163314610c6e5760405162461bcd60e51b81526020600482015260156024820152742737ba103a3432903a30b933b2ba103237b1ba37b960591b60448201526064016102c8565b6000600682015460ff166003811115610c8957610c89611004565b14610ccd5760405162461bcd60e51b8152602060048201526014602482015273526566657272616c206e6f742070656e64696e6760601b60448201526064016102c8565b60068101805460ff19166002179055426008820155604051339083907f67566de25e0e83f93776dd89de1913bb1b503d6003bd056a1d7693e0eb1f448690600090a35050565b6001600160a01b03811660009081526004602090815260409182902080548351818402810184019094528084526060939283018282801561070857602002820191906000526020600020908154815260200190600101908083116106f45750505050509050919050565b6003602052816000526040600020818154811061039157600080fd5b6001600160a01b03811660009081526003602090815260409182902080548351818402810184019094528084526060939283018282801561070857602002820191906000526020600020908154815260200190600101908083116106f45750505050509050919050565b6004602052816000526040600020818154811061039157600080fd5b600060208284031215610e3157600080fd5b5035919050565b80356001600160a01b0381168114610e4f57600080fd5b919050565b60008060408385031215610e6757600080fd5b610e7083610e38565b946020939093013593505050565b60008083601f840112610e9057600080fd5b50813567ffffffffffffffff811115610ea857600080fd5b602083019150836020828501011115610ec057600080fd5b9250929050565b60008060008060008060808789031215610ee057600080fd5b610ee987610e38565b9550610ef760208801610e38565b9450604087013567ffffffffffffffff80821115610f1457600080fd5b610f208a838b01610e7e565b90965094506060890135915080821115610f3957600080fd5b50610f4689828a01610e7e565b979a9699509497509295939492505050565b600060208284031215610f6a57600080fd5b610f7382610e38565b9392505050565b6020808252825182820181905260009190848201906040850190845b81811015610fb257835183529284019291840191600101610f96565b50909695505050505050565b6000815180845260005b81811015610fe457602081850181015186830182015201610fc8565b506000602082860101526020601f19601f83011685010191505092915050565b634e487b7160e01b600052602160045260246000fd5b6004811061103857634e487b7160e01b600052602160045260246000fd5b9052565b8981526001600160a01b0389811660208301528881166040830152871660608201526101206080820181905260009061107783820189610fbe565b905082810360a084015261108b8188610fbe565b91505061109b60c083018661101a565b60e08201939093526101000152979650505050505050565b6020815281516020820152600060208301516110da60408401826001600160a01b03169052565b5060408301516001600160a01b03811660608401525060608301516001600160a01b03811660808401525060808301516101208060a0850152611121610140850183610fbe565b915060a0850151601f198584030160c086015261113e8382610fbe565b92505060c085015161115360e086018261101a565b5060e085015161010085810191909152909401519390920192909252919050565b60006001820161119457634e487b7160e01b600052601160045260246000fd5b5060010190565b634e487b7160e01b600052604160045260246000fd5b600181811c908216806111c557607f821691505b6020821081036111e557634e487b7160e01b600052602260045260246000fd5b50919050565b601f821115611237576000816000526020600020601f850160051c810160208610156112145750805b601f850160051c820191505b8181101561123357828155600101611220565b5050505b505050565b815167ffffffffffffffff8111156112565761125661119b565b61126a8161126484546111b1565b846111eb565b602080601f83116001811461129f57600084156112875750858301515b600019600386901b1c1916600185901b178555611233565b600085815260208120601f198616915b828110156112ce578886015182559484019460019091019084016112af565b50858210156112ec5787850151600019600388901b60f8161c191681555b5050505050600190811b0190555056fea264697066735822122062ff48c26872a51d42a0488a62c36a44fbfa16dfc40acabe3f0bc69a6098d8dd64736f6c63430008180033",
  "linkReferences": {},
  "deployedLinkReferences": {}
}