{
  "_format": "hh-sol-artifact-1",
  "contractName": "ReviewSystem",
  "sourceName": "contracts/ReviewSystem.sol",
  "abi": [
    {
      "anonymous": false,
      "inputs": [
        {
          "indexed": true,
          "internalType": "address",
          "name": "patient",
          "type": "address"
        },
        {
          "indexed": true,
          "internalType": "address",
          "name": "doctor",
          "type": "address"
        },
        {
          "indexed": false,
          "internalType": "uint8",
          "name": "rating",
          "type": "uint8"
        }
      ],
      "name": "ReviewAdded",
      "type": "event"
    },
    {
      "inputs": [
        {
          "internalType": "address",
          "name": "_doctor",
          "type": "address"
        },
        {
          "internalType": "uint8",
          "name": "_rating",
          "type": "uint8"
        },
        {
          "internalType": "string",
          "name": "_comment",
          "type": "string"
        }
      ],
      "name": "addReview",
      "outputs": [],
      "stateMutability": "nonpayable",
      "type": "function"
    },
    {
      "inputs": [
        {
          "internalType": "address",
          "name": "",
          "type": "address"
        },
        {
          "internalType": "uint256",
          "name": "",
          "type": "uint256"
        }
      ],
      "name": "doctorReviews",
      "outputs": [
        {
          "internalType": "address",
          "name": "patient",
          "type": "address"
        },
        {
          "internalType": "address",
          "name": "doctor",
          "type": "address"
        },
        {
          "internalType": "uint8",
          "name": "rating",
          "type": "uint8"
        },
        {
          "internalType": "string",
          "name": "comment",
          "type": "string"
        },
        {
          "internalType": "uint256",
          "name": "timestamp",
          "type": "uint256"
        }
      ],
      "stateMutability": "view",
      "type": "function"
    },
    {
      "inputs": [
        {
          "internalType": "address",
          "name": "_doctor",
          "type": "address"
        }
      ],
      "name": "getAverageRating",
      "outputs": [
        {
          "internalType": "uint256",
          "name": "",
          "type": "uint256"
        }
      ],
      "stateMutability": "view",
      "type": "function"
    },
    {
      "inputs": [
        {
          "internalType": "address",
          "name": "_doctor",
          "type": "address"
        }
      ],
      "name": "getReviewCount",
      "outputs": [
        {
          "internalType": "uint256",
          "name": "",
          "type": "uint256"
        }
      ],
      "stateMutability": "view",
      "type": "function"
    },
    {
      "inputs": [
        {
          "internalType": "address",
          "name": "_doctor",
          "type": "address"
        }
      ],
      "name": "getReviews",
      "outputs": [
        {
          "components": [
            {
              "internalType": "address",
              "name": "patient",
              "type": "address"
            },
            {
              "internalType": "address",
              "name": "doctor",
              "type": "address"
            },
            {
              "internalType": "uint8",
              "name": "rating",
              "type": "uint8"
            },
            {
              "internalType": "string",
              "name": "comment",
              "type": "string"
            },
            {
              "internalType": "uint256",
              "name": "timestamp",
              "type": "uint256"
            }
          ],
          "internalType": "struct ReviewSystem.Review[]",
          "name": "",
          "type": "tuple[]"
        }
      ],
      "stateMutability": "view",
      "type": "function"
    },
    {
      "inputs": [
        {
          "internalType": "address",
          "name": "",
          "type": "address"
        },
        {
          "internalType": "address",
          "name": "",
          "type": "address"
        }
      ],
      "name": "hasReviewed",
      "outputs": [
        {
          "internalType": "bool",
          "name": "",
          "type": "bool"
        }
      ],
      "stateMutability": "view",
      "type": "function"
    },
    {
      "inputs": [
        {
          "internalType": "address",
          "name": "",
          "type": "address"
        }
      ],
      "name": "ratingSum",
      "outputs": [
        {
          "internalType": "uint256",
          "name": "",
          "type": "uint256"
        }
      ],
      "stateMutability": "view",
      "type": "function"
    },
    {
      "inputs": [
        {
          "internalType": "address",
          "name": "",
          "type": "address"
        }
      ],
      "name": "reviewCount",
      "outputs": [
        {
          "internalType": "uint256",
          "name": "",
          "type": "uint256"
        }
      ],
      "stateMutability": "view",
      "type": "function"
    }
  ],
  "bytecode": "0x608060405234801561001057600080fd5b50610bab806100206000396000f3fe608060405234801561001057600080fd5b50600436106100885760003560e01c8063c8b675221161005b578063c8b6752214610131578063d00493d614610144578063e8cce11514610182578063fc0b0c4d146101a257600080fd5b80632a33cbe31461008d5780634ef5a017146100ba5780636ec78fc6146100da5780639879f7fb14610111575b600080fd5b6100a061009b36600461074c565b6101b7565b6040516100b19594939291906107bc565b60405180910390f35b6100cd6100c8366004610803565b6102a1565b6040516100b19190610825565b6101036100e8366004610803565b6001600160a01b031660009081526002602052604090205490565b6040519081526020016100b1565b61010361011f366004610803565b60026020526000908152604090205481565b61010361013f366004610803565b6103e6565b6101726101523660046108d0565b600360209081526000928352604080842090915290825290205460ff1681565b60405190151581526020016100b1565b610103610190366004610803565b60016020526000908152604090205481565b6101b56101b0366004610903565b61044d565b005b600060205281600052604060002081815481106101d357600080fd5b60009182526020909120600490910201805460018201546002830180546001600160a01b0393841696509282169450600160a01b90910460ff16929161021890610999565b80601f016020809104026020016040519081016040528092919081815260200182805461024490610999565b80156102915780601f1061026657610100808354040283529160200191610291565b820191906000526020600020905b81548152906001019060200180831161027457829003601f168201915b5050505050908060030154905085565b6001600160a01b038116600090815260208181526040808320805482518185028101850190935280835260609492939192909184015b828210156103db5760008481526020908190206040805160a0810182526004860290920180546001600160a01b039081168452600182015490811694840194909452600160a01b90930460ff169082015260028201805491929160608401919061034090610999565b80601f016020809104026020016040519081016040528092919081815260200182805461036c90610999565b80156103b95780601f1061038e576101008083540402835291602001916103b9565b820191906000526020600020905b81548152906001019060200180831161039c57829003601f168201915b50505050508152602001600382015481525050815260200190600101906102d7565b505050509050919050565b6001600160a01b038116600090815260026020526040812054810361040d57506000919050565b6001600160a01b03821660009081526002602090815260408083205460019092529091205461043d9060646109e9565b6104479190610a00565b92915050565b60018360ff1610158015610465575060058360ff1611155b6104ab5760405162461bcd60e51b8152602060048201526012602482015271526174696e67206d75737420626520312d3560701b60448201526064015b60405180910390fd5b3360009081526003602090815260408083206001600160a01b038816845290915290205460ff161561051f5760405162461bcd60e51b815260206004820152601c60248201527f416c7265616479207265766965776564207468697320646f63746f720000000060448201526064016104a2565b6001600160a01b03841633036105705760405162461bcd60e51b815260206004820152601660248201527521b0b73737ba103932bb34b2bb903cb7bab939b2b63360511b60448201526064016104a2565b6001600160a01b03841660008181526020818152604091829020825160a0810184523381528083019490945260ff8716848401528251601f860183900483028101830190935284835292916060830191869086908190840183828082843760009201829052509385525050426020938401525083546001818101865594825290829020835160049092020180546001600160a01b039283166001600160a01b0319909116178155918301519382018054604085015160ff16600160a01b026001600160a81b03199091169590921694909417179092556060810151909190600282019061065d9082610a89565b50608091909101516003909101556001600160a01b0384166000908152600160205260408120805460ff86169290610696908490610b49565b90915550506001600160a01b03841660009081526002602052604081208054916106bf83610b5c565b90915550503360008181526003602090815260408083206001600160a01b03891680855290835292819020805460ff191660011790555160ff871681529192917f5da223395b674c6252c3a0fb606c4b37835f87634e43d249264f47e615c6e013910160405180910390a350505050565b80356001600160a01b038116811461074757600080fd5b919050565b6000806040838503121561075f57600080fd5b61076883610730565b946020939093013593505050565b6000815180845260005b8181101561079c57602081850181015186830182015201610780565b506000602082860101526020601f19601f83011685010191505092915050565b6001600160a01b0386811682528516602082015260ff8416604082015260a0606082018190526000906107f190830185610776565b90508260808301529695505050505050565b60006020828403121561081557600080fd5b61081e82610730565b9392505050565b600060208083018184528085518083526040925060408601915060408160051b87010184880160005b838110156108c257888303603f19018552815180516001600160a01b0390811685528882015116888501528681015160ff168785015260608082015160a082870181905291906108a083880182610776565b608094850151979094019690965250509487019492509086019060010161084e565b509098975050505050505050565b600080604083850312156108e357600080fd5b6108ec83610730565b91506108fa60208401610730565b90509250929050565b6000806000806060858703121561091957600080fd5b61092285610730565b9350602085013560ff8116811461093857600080fd5b9250604085013567ffffffffffffffff8082111561095557600080fd5b818701915087601f83011261096957600080fd5b81358181111561097857600080fd5b88602082850101111561098a57600080fd5b95989497505060200194505050565b600181811c908216806109ad57607f821691505b6020821081036109cd57634e487b7160e01b600052602260045260246000fd5b50919050565b634e487b7160e01b600052601160045260246000fd5b8082028115828204841417610447576104476109d3565b600082610a1d57634e487b7160e01b600052601260045260246000fd5b500490565b634e487b7160e01b600052604160045260246000fd5b601f821115610a84576000816000526020600020601f850160051c81016020861015610a615750805b601f850160051c820191505b81811015610a8057828155600101610a6d565b5050505b505050565b815167ffffffffffffffff811115610aa357610aa3610a22565b610ab781610ab18454610999565b84610a38565b602080601f831160018114610aec5760008415610ad45750858301515b600019600386901b1c1916600185901b178555610a80565b600085815260208120601f198616915b82811015610b1b57888601518255948401946001909101908401610afc565b5085821015610b395787850151600019600388901b60f8161c191681555b5050505050600190811b01905550565b80820180821115610447576104476109d3565b600060018201610b6e57610b6e6109d3565b506001019056fea264697066735822122059d494b92a672e9a9e1fb2cf3c7599accab066c676f4fc9d1a067e2eea7c72a364736f6c63430008180033",
  "linkReferences": {},
  "deployedLinkReferences": {}
}